{
  "_format": "hh-sol-artifact-1",
  "contractName": "WavePortal",
  "sourceName": "contracts/WavePortal.sol",
  "abi": [
    {
      "inputs": [],
      "stateMutability": "nonpayable",
      "type": "constructor"
    },
    {
      "inputs": [],
      "name": "getMostWaves",
      "outputs": [
        {
          "internalType": "address",
          "name": "",
          "type": "address"
        },
        {
          "internalType": "uint256",
          "name": "",
          "type": "uint256"
        }
      ],
      "stateMutability": "view",
      "type": "function"
    },
    {
      "inputs": [],
      "name": "getTotalWaves",
      "outputs": [
        {
          "internalType": "uint256",
          "name": "",
          "type": "uint256"
        }
      ],
      "stateMutability": "view",
      "type": "function"
    },
    {
      "inputs": [
        {
          "internalType": "address",
          "name": "adr",
          "type": "address"
        }
      ],
      "name": "getWavesOfAddress",
      "outputs": [
        {
          "internalType": "uint256",
          "name": "",
          "type": "uint256"
        }
      ],
      "stateMutability": "view",
      "type": "function"
    },
    {
      "inputs": [],
      "name": "wave",
      "outputs": [],
      "stateMutability": "nonpayable",
      "type": "function"
    },
    {
      "inputs": [
        {
          "internalType": "address",
          "name": "",
          "type": "address"
        }
      ],
      "name": "wavesByAddress",
      "outputs": [
        {
          "internalType": "uint256",
          "name": "",
          "type": "uint256"
        }
      ],
      "stateMutability": "view",
      "type": "function"
    }
  ],
  "bytecode": "0x608060405234801561001057600080fd5b5061003d60405180606001604052806025815260200162000c726025913961004260201b6104e51760201c565b6101c5565b6100de816040516024016100569190610143565b6040516020818303038152906040527f41304fac000000000000000000000000000000000000000000000000000000007bffffffffffffffffffffffffffffffffffffffffffffffffffffffff19166020820180517bffffffffffffffffffffffffffffffffffffffffffffffffffffffff83818316178352505050506100e160201b60201c565b50565b60008151905060006a636f6e736f6c652e6c6f679050602083016000808483855afa5050505050565b600061011582610165565b61011f8185610170565b935061012f818560208601610181565b610138816101b4565b840191505092915050565b6000602082019050818103600083015261015d818461010a565b905092915050565b600081519050919050565b600082825260208201905092915050565b60005b8381101561019f578082015181840152602081019050610184565b838111156101ae576000848401525b50505050565b6000601f19601f8301169050919050565b610a9d80620001d56000396000f3fe608060405234801561001057600080fd5b50600436106100575760003560e01c80636204f3801461005c5780636fe15b441461007b5780639a2cdc0814610085578063e09f4ab8146100a3578063e1da7173146100d3575b600080fd5b610064610103565b604051610072929190610869565b60405180910390f35b6100836101ca565b005b61008d610384565b60405161009a9190610914565b60405180910390f35b6100bd60048036038101906100b89190610796565b6103cf565b6040516100ca9190610914565b60405180910390f35b6100ed60048036038101906100e89190610796565b6104cd565b6040516100fa9190610914565b60405180910390f35b60008061019e60008054906101000a900473ffffffffffffffffffffffffffffffffffffffff166040518060400160405280601581526020017f68617320776176656420746865206d6f737420617400000000000000000000008152506001546040518060400160405280600681526020017f776176657321000000000000000000000000000000000000000000000000000081525061057e565b60008054906101000a900473ffffffffffffffffffffffffffffffffffffffff16600154915091509091565b6001600360008282546101dd919061094b565b925050819055506102236040518060400160405280600d81526020017f257320686173207761766564210000000000000000000000000000000000000081525033610620565b6001600260003373ffffffffffffffffffffffffffffffffffffffff1673ffffffffffffffffffffffffffffffffffffffff1681526020019081526020016000205461026f919061094b565b600260003373ffffffffffffffffffffffffffffffffffffffff1673ffffffffffffffffffffffffffffffffffffffff16815260200190815260200160002081905550600154600260003373ffffffffffffffffffffffffffffffffffffffff1673ffffffffffffffffffffffffffffffffffffffff16815260200190815260200160002054111561038257336000806101000a81548173ffffffffffffffffffffffffffffffffffffffff021916908373ffffffffffffffffffffffffffffffffffffffff160217905550600260003373ffffffffffffffffffffffffffffffffffffffff1673ffffffffffffffffffffffffffffffffffffffff168152602001908152602001600020546001819055505b565b60006103c76040518060400160405280601681526020017f5765206861766520256420746f74616c207761766573000000000000000000008152506003546106bc565b600354905090565b6000610486826040518060400160405280600981526020017f6861732077617665640000000000000000000000000000000000000000000000815250600260008673ffffffffffffffffffffffffffffffffffffffff1673ffffffffffffffffffffffffffffffffffffffff168152602001908152602001600020546040518060400160405280600581526020017f74696d657300000000000000000000000000000000000000000000000000000081525061057e565b600260008373ffffffffffffffffffffffffffffffffffffffff1673ffffffffffffffffffffffffffffffffffffffff168152602001908152602001600020549050919050565b60026020528060005260406000206000915090505481565b61057b816040516024016104f99190610892565b6040516020818303038152906040527f41304fac000000000000000000000000000000000000000000000000000000007bffffffffffffffffffffffffffffffffffffffffffffffffffffffff19166020820180517bffffffffffffffffffffffffffffffffffffffffffffffffffffffff8381831617835250505050610758565b50565b61061a848484846040516024016105989493929190610816565b6040516020818303038152906040527f5d1365c9000000000000000000000000000000000000000000000000000000007bffffffffffffffffffffffffffffffffffffffffffffffffffffffff19166020820180517bffffffffffffffffffffffffffffffffffffffffffffffffffffffff8381831617835250505050610758565b50505050565b6106b882826040516024016106369291906108b4565b6040516020818303038152906040527f319af333000000000000000000000000000000000000000000000000000000007bffffffffffffffffffffffffffffffffffffffffffffffffffffffff19166020820180517bffffffffffffffffffffffffffffffffffffffffffffffffffffffff8381831617835250505050610758565b5050565b61075482826040516024016106d29291906108e4565b6040516020818303038152906040527f9710a9d0000000000000000000000000000000000000000000000000000000007bffffffffffffffffffffffffffffffffffffffffffffffffffffffff19166020820180517bffffffffffffffffffffffffffffffffffffffffffffffffffffffff8381831617835250505050610758565b5050565b60008151905060006a636f6e736f6c652e6c6f679050602083016000808483855afa5050505050565b60008135905061079081610a50565b92915050565b6000602082840312156107a857600080fd5b60006107b684828501610781565b91505092915050565b6107c8816109a1565b82525050565b60006107d98261092f565b6107e3818561093a565b93506107f38185602086016109dd565b6107fc81610a3f565b840191505092915050565b610810816109d3565b82525050565b600060808201905061082b60008301876107bf565b818103602083015261083d81866107ce565b905061084c6040830185610807565b818103606083015261085e81846107ce565b905095945050505050565b600060408201905061087e60008301856107bf565b61088b6020830184610807565b9392505050565b600060208201905081810360008301526108ac81846107ce565b905092915050565b600060408201905081810360008301526108ce81856107ce565b90506108dd60208301846107bf565b9392505050565b600060408201905081810360008301526108fe81856107ce565b905061090d6020830184610807565b9392505050565b60006020820190506109296000830184610807565b92915050565b600081519050919050565b600082825260208201905092915050565b6000610956826109d3565b9150610961836109d3565b9250827fffffffffffffffffffffffffffffffffffffffffffffffffffffffffffffffff0382111561099657610995610a10565b5b828201905092915050565b60006109ac826109b3565b9050919050565b600073ffffffffffffffffffffffffffffffffffffffff82169050919050565b6000819050919050565b60005b838110156109fb5780820151818401526020810190506109e0565b83811115610a0a576000848401525b50505050565b7f4e487b7100000000000000000000000000000000000000000000000000000000600052601160045260246000fd5b6000601f19601f8301169050919050565b610a59816109a1565b8114610a6457600080fd5b5056fea26469706673582212207b73c664b6b04f650bda1da9d2f77250d8a51c2ec4455da5af1f4f5af659cc1e64736f6c63430008000033596f20796f2c204920616d206120636f6e747261637420616e64204920616d20736d617274",
  "linkReferences": {},
  "deployedLinkReferences": {}
}