{
  "_format": "hh-sol-artifact-1",
  "contractName": "WavePortal",
  "sourceName": "contracts/WavePortal.sol",
  "abi": [
    {
      "inputs": [],
      "stateMutability": "payable",
      "type": "constructor"
    },
    {
      "anonymous": false,
      "inputs": [
        {
          "indexed": true,
          "internalType": "address",
          "name": "from",
          "type": "address"
        },
        {
          "indexed": false,
          "internalType": "uint256",
          "name": "timestamp",
          "type": "uint256"
        },
        {
          "indexed": false,
          "internalType": "string",
          "name": "message",
          "type": "string"
        }
      ],
      "name": "NewWave",
      "type": "event"
    },
    {
      "inputs": [],
      "name": "getAllWaves",
      "outputs": [
        {
          "components": [
            {
              "internalType": "address",
              "name": "waver",
              "type": "address"
            },
            {
              "internalType": "string",
              "name": "message",
              "type": "string"
            },
            {
              "internalType": "uint256",
              "name": "timestamp",
              "type": "uint256"
            }
          ],
          "internalType": "struct WavePortal.Wave[]",
          "name": "",
          "type": "tuple[]"
        }
      ],
      "stateMutability": "view",
      "type": "function"
    },
    {
      "inputs": [],
      "name": "getMostWaves",
      "outputs": [
        {
          "internalType": "address",
          "name": "",
          "type": "address"
        },
        {
          "internalType": "uint32",
          "name": "",
          "type": "uint32"
        }
      ],
      "stateMutability": "view",
      "type": "function"
    },
    {
      "inputs": [],
      "name": "getTotalWaves",
      "outputs": [
        {
          "internalType": "uint256",
          "name": "",
          "type": "uint256"
        }
      ],
      "stateMutability": "view",
      "type": "function"
    },
    {
      "inputs": [
        {
          "internalType": "address",
          "name": "adr",
          "type": "address"
        }
      ],
      "name": "getWavesOfAddress",
      "outputs": [
        {
          "internalType": "uint32",
          "name": "",
          "type": "uint32"
        }
      ],
      "stateMutability": "view",
      "type": "function"
    },
    {
      "inputs": [
        {
          "internalType": "address",
          "name": "",
          "type": "address"
        }
      ],
      "name": "lastWavedAt",
      "outputs": [
        {
          "internalType": "uint256",
          "name": "",
          "type": "uint256"
        }
      ],
      "stateMutability": "view",
      "type": "function"
    },
    {
      "inputs": [
        {
          "internalType": "string",
          "name": "_message",
          "type": "string"
        }
      ],
      "name": "wave",
      "outputs": [],
      "stateMutability": "nonpayable",
      "type": "function"
    },
    {
      "inputs": [
        {
          "internalType": "address",
          "name": "",
          "type": "address"
        }
      ],
      "name": "wavesByAddress",
      "outputs": [
        {
          "internalType": "uint32",
          "name": "",
          "type": "uint32"
        }
      ],
      "stateMutability": "view",
      "type": "function"
    }
  ],
  "bytecode": "0x60806040526200004f6040518060400160405280601981526020017f4920414d20534d41525420434f4e54524143542e20504f472e000000000000008152506200007760201b62000b4b1760201c565b606444426200005f9190620001c4565b6200006b919062000261565b60028190555062000308565b62000117816040516024016200008e919062000184565b6040516020818303038152906040527f41304fac000000000000000000000000000000000000000000000000000000007bffffffffffffffffffffffffffffffffffffffffffffffffffffffff19166020820180517bffffffffffffffffffffffffffffffffffffffffffffffffffffffff83818316178352505050506200011a60201b60201c565b50565b60008151905060006a636f6e736f6c652e6c6f679050602083016000808483855afa5050505050565b60006200015082620001a8565b6200015c8185620001b3565b93506200016e8185602086016200022b565b6200017981620002f7565b840191505092915050565b60006020820190508181036000830152620001a0818462000143565b905092915050565b600081519050919050565b600082825260208201905092915050565b6000620001d18262000221565b9150620001de8362000221565b9250827fffffffffffffffffffffffffffffffffffffffffffffffffffffffffffffffff0382111562000216576200021562000299565b5b828201905092915050565b6000819050919050565b60005b838110156200024b5780820151818401526020810190506200022e565b838111156200025b576000848401525b50505050565b60006200026e8262000221565b91506200027b8362000221565b9250826200028e576200028d620002c8565b5b828206905092915050565b7f4e487b7100000000000000000000000000000000000000000000000000000000600052601160045260246000fd5b7f4e487b7100000000000000000000000000000000000000000000000000000000600052601260045260246000fd5b6000601f19601f8301169050919050565b61187980620003186000396000f3fe608060405234801561001057600080fd5b506004361061007d5760003560e01c8063a42a46631161005b578063a42a4663146100db578063bd43a9081461010b578063e09f4ab814610129578063e1da7173146101595761007d565b8063449d46c0146100825780636204f3801461009e5780639a2cdc08146100bd575b600080fd5b61009c60048036038101906100979190610fcf565b610189565b005b6100a6610763565b6040516100b4929190611334565b60405180910390f35b6100c5610850565b6040516100d291906114a6565b60405180910390f35b6100f560048036038101906100f09190610fa6565b61089b565b60405161010291906114a6565b60405180910390f35b6101136108b3565b604051610120919061135d565b60405180910390f35b610143600480360381019061013e9190610fa6565b610a04565b60405161015091906114f1565b60405180910390f35b610173600480360381019061016e9190610fa6565b610b28565b60405161018091906114f1565b60405180910390f35b42600f600360003373ffffffffffffffffffffffffffffffffffffffff1673ffffffffffffffffffffffffffffffffffffffff168152602001908152602001600020546101d691906115de565b10610216576040517f08c379a000000000000000000000000000000000000000000000000000000000815260040161020d90611486565b60405180910390fd5b42600360003373ffffffffffffffffffffffffffffffffffffffff1673ffffffffffffffffffffffffffffffffffffffff1681526020019081526020016000208190555060016004600082825461026d91906115de565b925050819055506102b46040518060400160405280601681526020017f257320776176656420772f206d657373616765202573000000000000000000008152503383610be4565b60018060003373ffffffffffffffffffffffffffffffffffffffff1673ffffffffffffffffffffffffffffffffffffffff16815260200190815260200160002060009054906101000a900463ffffffff1661030f9190611634565b600160003373ffffffffffffffffffffffffffffffffffffffff1673ffffffffffffffffffffffffffffffffffffffff16815260200190815260200160002060006101000a81548163ffffffff021916908363ffffffff160217905550600560405180606001604052803373ffffffffffffffffffffffffffffffffffffffff16815260200183815260200142815250908060018154018082558091505060019003906000526020600020906003020160009091909190915060008201518160000160006101000a81548173ffffffffffffffffffffffffffffffffffffffff021916908373ffffffffffffffffffffffffffffffffffffffff160217905550602082015181600101908051906020019061042b929190610e86565b506040820151816002015550506064600254424461044991906115de565b61045391906115de565b61045d919061172e565b6002819055506104a46040518060400160405280601681526020017f52616e646f6d20232067656e6572617465643a20256400000000000000000000815250600254610c83565b600060149054906101000a900463ffffffff1663ffffffff16600160003373ffffffffffffffffffffffffffffffffffffffff1673ffffffffffffffffffffffffffffffffffffffff16815260200190815260200160002060009054906101000a900463ffffffff1663ffffffff1611156105ca57336000806101000a81548173ffffffffffffffffffffffffffffffffffffffff021916908373ffffffffffffffffffffffffffffffffffffffff160217905550600160003373ffffffffffffffffffffffffffffffffffffffff1673ffffffffffffffffffffffffffffffffffffffff16815260200190815260200160002060009054906101000a900463ffffffff16600060146101000a81548163ffffffff021916908363ffffffff1602179055505b603260025411610710576106136040518060400160405280600781526020017f257320776f6e210000000000000000000000000000000000000000000000000081525033610d1f565b6000655af3107a4000905047811115610661576040517f08c379a000000000000000000000000000000000000000000000000000000000815260040161065890611446565b60405180910390fd5b60003373ffffffffffffffffffffffffffffffffffffffff1682604051610687906112cc565b60006040518083038185875af1925050503d80600081146106c4576040519150601f19603f3d011682016040523d82523d6000602084013e6106c9565b606091505b505090508061070d576040517f08c379a000000000000000000000000000000000000000000000000000000000815260040161070490611466565b60405180910390fd5b50505b3373ffffffffffffffffffffffffffffffffffffffff167f5f7e16dc676677766a70e9c5628aa6c54ddb8b6e5188e2ae1e1f17f1ffbea71642836040516107589291906114c1565b60405180910390a250565b60008061081460008054906101000a900473ffffffffffffffffffffffffffffffffffffffff166040518060400160405280601581526020017f68617320776176656420746865206d6f73742061740000000000000000000000815250600060149054906101000a900463ffffffff1663ffffffff166040518060400160405280600681526020017f7761766573210000000000000000000000000000000000000000000000000000815250610dbb565b60008054906101000a900473ffffffffffffffffffffffffffffffffffffffff16600060149054906101000a900463ffffffff16915091509091565b60006108936040518060400160405280601781526020017f5765206861766520256420746f74616c20776176657321000000000000000000815250600454610c83565b600454905090565b60036020528060005260406000206000915090505481565b60606005805480602002602001604051908101604052809291908181526020016000905b828210156109fb57838290600052602060002090600302016040518060600160405290816000820160009054906101000a900473ffffffffffffffffffffffffffffffffffffffff1673ffffffffffffffffffffffffffffffffffffffff1673ffffffffffffffffffffffffffffffffffffffff168152602001600182018054610960906116fc565b80601f016020809104026020016040519081016040528092919081815260200182805461098c906116fc565b80156109d95780601f106109ae576101008083540402835291602001916109d9565b820191906000526020600020905b8154815290600101906020018083116109bc57829003601f168201915b50505050508152602001600282015481525050815260200190600101906108d7565b50505050905090565b6000610ad1826040518060400160405280600981526020017f6861732077617665640000000000000000000000000000000000000000000000815250600160008673ffffffffffffffffffffffffffffffffffffffff1673ffffffffffffffffffffffffffffffffffffffff16815260200190815260200160002060009054906101000a900463ffffffff1663ffffffff166040518060400160405280600581526020017f74696d6573000000000000000000000000000000000000000000000000000000815250610dbb565b600160008373ffffffffffffffffffffffffffffffffffffffff1673ffffffffffffffffffffffffffffffffffffffff16815260200190815260200160002060009054906101000a900463ffffffff169050919050565b60016020528060005260406000206000915054906101000a900463ffffffff1681565b610be181604051602401610b5f919061137f565b6040516020818303038152906040527f41304fac000000000000000000000000000000000000000000000000000000007bffffffffffffffffffffffffffffffffffffffffffffffffffffffff19166020820180517bffffffffffffffffffffffffffffffffffffffffffffffffffffffff8381831617835250505050610e5d565b50565b610c7e838383604051602401610bfc939291906113d1565b6040516020818303038152906040527fe0e9ad4f000000000000000000000000000000000000000000000000000000007bffffffffffffffffffffffffffffffffffffffffffffffffffffffff19166020820180517bffffffffffffffffffffffffffffffffffffffffffffffffffffffff8381831617835250505050610e5d565b505050565b610d1b8282604051602401610c99929190611416565b6040516020818303038152906040527f9710a9d0000000000000000000000000000000000000000000000000000000007bffffffffffffffffffffffffffffffffffffffffffffffffffffffff19166020820180517bffffffffffffffffffffffffffffffffffffffffffffffffffffffff8381831617835250505050610e5d565b5050565b610db78282604051602401610d359291906113a1565b6040516020818303038152906040527f319af333000000000000000000000000000000000000000000000000000000007bffffffffffffffffffffffffffffffffffffffffffffffffffffffff19166020820180517bffffffffffffffffffffffffffffffffffffffffffffffffffffffff8381831617835250505050610e5d565b5050565b610e5784848484604051602401610dd594939291906112e1565b6040516020818303038152906040527f5d1365c9000000000000000000000000000000000000000000000000000000007bffffffffffffffffffffffffffffffffffffffffffffffffffffffff19166020820180517bffffffffffffffffffffffffffffffffffffffffffffffffffffffff8381831617835250505050610e5d565b50505050565b60008151905060006a636f6e736f6c652e6c6f679050602083016000808483855afa5050505050565b828054610e92906116fc565b90600052602060002090601f016020900481019282610eb45760008555610efb565b82601f10610ecd57805160ff1916838001178555610efb565b82800160010185558215610efb579182015b82811115610efa578251825591602001919060010190610edf565b5b509050610f089190610f0c565b5090565b5b80821115610f25576000816000905550600101610f0d565b5090565b6000610f3c610f378461153d565b61150c565b905082815260208101848484011115610f5457600080fd5b610f5f8482856116ba565b509392505050565b600081359050610f768161182c565b92915050565b600082601f830112610f8d57600080fd5b8135610f9d848260208601610f29565b91505092915050565b600060208284031215610fb857600080fd5b6000610fc684828501610f67565b91505092915050565b600060208284031215610fe157600080fd5b600082013567ffffffffffffffff811115610ffb57600080fd5b61100784828501610f7c565b91505092915050565b600061101c838361124f565b905092915050565b61102d8161166e565b82525050565b61103c8161166e565b82525050565b600061104d8261157d565b61105781856115a0565b9350836020820285016110698561156d565b8060005b858110156110a557848403895281516110868582611010565b945061109183611593565b925060208a0199505060018101905061106d565b50829750879550505050505092915050565b60006110c282611588565b6110cc81856115bc565b93506110dc8185602086016116c9565b6110e58161181b565b840191505092915050565b60006110fb82611588565b61110581856115cd565b93506111158185602086016116c9565b61111e8161181b565b840191505092915050565b60006111366034836115cd565b91507f547279696e6720746f207769746864726177206d6f7265206d6f6e657920746860008301527f616e2074686520636f6e7472616374206861732e0000000000000000000000006020830152604082019050919050565b600061119c6027836115cd565b91507f4661696c656420746f207769746864726177206d6f6e65792066726f6d20636f60008301527f6e74726163742e000000000000000000000000000000000000000000000000006020830152604082019050919050565b6000611202600a836115cd565b91507f57616974203135736563000000000000000000000000000000000000000000006000830152602082019050919050565b60006112426000836115b1565b9150600082019050919050565b60006060830160008301516112676000860182611024565b506020830151848203602086015261127f82826110b7565b9150506040830151611294604086018261129f565b508091505092915050565b6112a8816116a0565b82525050565b6112b7816116a0565b82525050565b6112c6816116aa565b82525050565b60006112d782611235565b9150819050919050565b60006080820190506112f66000830187611033565b818103602083015261130881866110f0565b905061131760408301856112ae565b818103606083015261132981846110f0565b905095945050505050565b60006040820190506113496000830185611033565b61135660208301846112bd565b9392505050565b600060208201905081810360008301526113778184611042565b905092915050565b6000602082019050818103600083015261139981846110f0565b905092915050565b600060408201905081810360008301526113bb81856110f0565b90506113ca6020830184611033565b9392505050565b600060608201905081810360008301526113eb81866110f0565b90506113fa6020830185611033565b818103604083015261140c81846110f0565b9050949350505050565b6000604082019050818103600083015261143081856110f0565b905061143f60208301846112ae565b9392505050565b6000602082019050818103600083015261145f81611129565b9050919050565b6000602082019050818103600083015261147f8161118f565b9050919050565b6000602082019050818103600083015261149f816111f5565b9050919050565b60006020820190506114bb60008301846112ae565b92915050565b60006040820190506114d660008301856112ae565b81810360208301526114e881846110f0565b90509392505050565b600060208201905061150660008301846112bd565b92915050565b6000604051905081810181811067ffffffffffffffff82111715611533576115326117ec565b5b8060405250919050565b600067ffffffffffffffff821115611558576115576117ec565b5b601f19601f8301169050602081019050919050565b6000819050602082019050919050565b600081519050919050565b600081519050919050565b6000602082019050919050565b600082825260208201905092915050565b600081905092915050565b600082825260208201905092915050565b600082825260208201905092915050565b60006115e9826116a0565b91506115f4836116a0565b9250827fffffffffffffffffffffffffffffffffffffffffffffffffffffffffffffffff038211156116295761162861175f565b5b828201905092915050565b600061163f826116aa565b915061164a836116aa565b92508263ffffffff038211156116635761166261175f565b5b828201905092915050565b600061167982611680565b9050919050565b600073ffffffffffffffffffffffffffffffffffffffff82169050919050565b6000819050919050565b600063ffffffff82169050919050565b82818337600083830152505050565b60005b838110156116e75780820151818401526020810190506116cc565b838111156116f6576000848401525b50505050565b6000600282049050600182168061171457607f821691505b60208210811415611728576117276117bd565b5b50919050565b6000611739826116a0565b9150611744836116a0565b9250826117545761175361178e565b5b828206905092915050565b7f4e487b7100000000000000000000000000000000000000000000000000000000600052601160045260246000fd5b7f4e487b7100000000000000000000000000000000000000000000000000000000600052601260045260246000fd5b7f4e487b7100000000000000000000000000000000000000000000000000000000600052602260045260246000fd5b7f4e487b7100000000000000000000000000000000000000000000000000000000600052604160045260246000fd5b6000601f19601f8301169050919050565b6118358161166e565b811461184057600080fd5b5056fea2646970667358221220f8d01fc5324a8854dbc79450ffb9dd8083dcdbd5c36a52e41993708790e66b1f64736f6c63430008000033",
  "linkReferences": {},
  "deployedLinkReferences": {}
}